{
  "contractName": "TasksContract",
  "abi": [
    {
      "inputs": [],
      "stateMutability": "nonpayable",
      "type": "constructor"
    },
    {
      "anonymous": false,
      "inputs": [
        {
          "indexed": false,
          "internalType": "uint256",
          "name": "id",
          "type": "uint256"
        },
        {
          "indexed": false,
          "internalType": "string",
          "name": "title",
          "type": "string"
        },
        {
          "indexed": false,
          "internalType": "string",
          "name": "description",
          "type": "string"
        },
        {
          "indexed": false,
          "internalType": "bool",
          "name": "done",
          "type": "bool"
        },
        {
          "indexed": false,
          "internalType": "uint256",
          "name": "createdAt",
          "type": "uint256"
        }
      ],
      "name": "TaskCreated",
      "type": "event"
    },
    {
      "anonymous": false,
      "inputs": [
        {
          "indexed": false,
          "internalType": "uint256",
          "name": "id",
          "type": "uint256"
        },
        {
          "indexed": false,
          "internalType": "bool",
          "name": "done",
          "type": "bool"
        }
      ],
      "name": "TaskToggleDone",
      "type": "event"
    },
    {
      "inputs": [],
      "name": "taskCounter",
      "outputs": [
        {
          "internalType": "uint256",
          "name": "",
          "type": "uint256"
        }
      ],
      "stateMutability": "view",
      "type": "function",
      "constant": true
    },
    {
      "inputs": [
        {
          "internalType": "uint256",
          "name": "",
          "type": "uint256"
        }
      ],
      "name": "tasks",
      "outputs": [
        {
          "internalType": "uint256",
          "name": "id",
          "type": "uint256"
        },
        {
          "internalType": "string",
          "name": "title",
          "type": "string"
        },
        {
          "internalType": "string",
          "name": "description",
          "type": "string"
        },
        {
          "internalType": "bool",
          "name": "done",
          "type": "bool"
        },
        {
          "internalType": "uint256",
          "name": "createdAt",
          "type": "uint256"
        }
      ],
      "stateMutability": "view",
      "type": "function",
      "constant": true
    },
    {
      "inputs": [
        {
          "internalType": "string",
          "name": "_title",
          "type": "string"
        },
        {
          "internalType": "string",
          "name": "_description",
          "type": "string"
        }
      ],
      "name": "createTask",
      "outputs": [],
      "stateMutability": "nonpayable",
      "type": "function"
    },
    {
      "inputs": [
        {
          "internalType": "uint256",
          "name": "_id",
          "type": "uint256"
        }
      ],
      "name": "toggleDone",
      "outputs": [],
      "stateMutability": "nonpayable",
      "type": "function"
    }
  ],
  "bytecode": "0x6080604052600080553480156200001557600080fd5b50620000926040518060400160405280600d81526020017f4d79206669727374207461736b000000000000000000000000000000000000008152506040518060400160405280601f81526020017f49206861766520746f20646f20736f6d657468696e6720746f6461792e2e2e008152506200009860201b60201c565b620006af565b6040518060a001604052806000548152602001838152602001828152602001600015158152602001428152506001600080548152602001908152602001600020600082015181600001556020820151816001019081620000f991906200041a565b5060408201518160020190816200011191906200041a565b5060608201518160030160006101000a81548160ff02191690831515021790555060808201518160040155905050600080815480929190620001539062000530565b91905055507f6549102bed7d1bb5ec529ee14e2ca60ffc1f47f66d4cc6ca713220613cc64c2560005483836000426040516200019495949392919062000644565b60405180910390a15050565b600081519050919050565b7f4e487b7100000000000000000000000000000000000000000000000000000000600052604160045260246000fd5b7f4e487b7100000000000000000000000000000000000000000000000000000000600052602260045260246000fd5b600060028204905060018216806200022257607f821691505b602082108103620002385762000237620001da565b5b50919050565b60008190508160005260206000209050919050565b60006020601f8301049050919050565b600082821b905092915050565b600060088302620002a27fffffffffffffffffffffffffffffffffffffffffffffffffffffffffffffffff8262000263565b620002ae868362000263565b95508019841693508086168417925050509392505050565b6000819050919050565b6000819050919050565b6000620002fb620002f5620002ef84620002c6565b620002d0565b620002c6565b9050919050565b6000819050919050565b6200031783620002da565b6200032f620003268262000302565b84845462000270565b825550505050565b600090565b6200034662000337565b620003538184846200030c565b505050565b5b818110156200037b576200036f6000826200033c565b60018101905062000359565b5050565b601f821115620003ca5762000394816200023e565b6200039f8462000253565b81016020851015620003af578190505b620003c7620003be8562000253565b83018262000358565b50505b505050565b600082821c905092915050565b6000620003ef60001984600802620003cf565b1980831691505092915050565b60006200040a8383620003dc565b9150826002028217905092915050565b6200042582620001a0565b67ffffffffffffffff811115620004415762000440620001ab565b5b6200044d825462000209565b6200045a8282856200037f565b600060209050601f8311600181146200049257600084156200047d578287015190505b620004898582620003fc565b865550620004f9565b601f198416620004a2866200023e565b60005b82811015620004cc57848901518255600182019150602085019450602081019050620004a5565b86831015620004ec5784890151620004e8601f891682620003dc565b8355505b6001600288020188555050505b505050505050565b7f4e487b7100000000000000000000000000000000000000000000000000000000600052601160045260246000fd5b60006200053d82620002c6565b91507fffffffffffffffffffffffffffffffffffffffffffffffffffffffffffffffff820362000572576200057162000501565b5b600182019050919050565b6200058881620002c6565b82525050565b600082825260208201905092915050565b60005b83811015620005bf578082015181840152602081019050620005a2565b83811115620005cf576000848401525b50505050565b6000601f19601f8301169050919050565b6000620005f382620001a0565b620005ff81856200058e565b9350620006118185602086016200059f565b6200061c81620005d5565b840191505092915050565b60008115159050919050565b6200063e8162000627565b82525050565b600060a0820190506200065b60008301886200057d565b81810360208301526200066f8187620005e6565b90508181036040830152620006858186620005e6565b905062000696606083018562000633565b620006a560808301846200057d565b9695505050505050565b610c8d80620006bf6000396000f3fe608060405234801561001057600080fd5b506004361061004c5760003560e01c8063292a458514610051578063586717301461006d5780638d9776721461008b578063d81ef739146100bf575b600080fd5b61006b600480360381019061006691906106d0565b6100db565b005b6100756101db565b6040516100829190610761565b60405180910390f35b6100a560048036038101906100a091906107a8565b6101e1565b6040516100b6959493929190610878565b60405180910390f35b6100d960048036038101906100d491906107a8565b610334565b005b6040518060a00160405280600054815260200183815260200182815260200160001515815260200142815250600160008054815260200190815260200160002060008201518160000155602082015181600101908161013a9190610ae5565b5060408201518160020190816101509190610ae5565b5060608201518160030160006101000a81548160ff0219169083151502179055506080820151816004015590505060008081548092919061019090610be6565b91905055507f6549102bed7d1bb5ec529ee14e2ca60ffc1f47f66d4cc6ca713220613cc64c2560005483836000426040516101cf959493929190610878565b60405180910390a15050565b60005481565b600160205280600052604060002060009150905080600001549080600101805461020a90610908565b80601f016020809104026020016040519081016040528092919081815260200182805461023690610908565b80156102835780601f1061025857610100808354040283529160200191610283565b820191906000526020600020905b81548152906001019060200180831161026657829003601f168201915b50505050509080600201805461029890610908565b80601f01602080910402602001604051908101604052809291908181526020018280546102c490610908565b80156103115780601f106102e657610100808354040283529160200191610311565b820191906000526020600020905b8154815290600101906020018083116102f457829003601f168201915b5050505050908060030160009054906101000a900460ff16908060040154905085565b6000600160008381526020019081526020016000206040518060a00160405290816000820154815260200160018201805461036e90610908565b80601f016020809104026020016040519081016040528092919081815260200182805461039a90610908565b80156103e75780601f106103bc576101008083540402835291602001916103e7565b820191906000526020600020905b8154815290600101906020018083116103ca57829003601f168201915b5050505050815260200160028201805461040090610908565b80601f016020809104026020016040519081016040528092919081815260200182805461042c90610908565b80156104795780601f1061044e57610100808354040283529160200191610479565b820191906000526020600020905b81548152906001019060200180831161045c57829003601f168201915b505050505081526020016003820160009054906101000a900460ff16151515158152602001600482015481525050905080606001511581606001901515908115158152505080600160008481526020019081526020016000206000820151816000015560208201518160010190816104f19190610ae5565b5060408201518160020190816105079190610ae5565b5060608201518160030160006101000a81548160ff021916908315150217905550608082015181600401559050507f389dee00d487dd41dd5bf0f43eeaa5b663b3af022d52368df89d388150295f4582826060015160405161056a929190610c2e565b60405180910390a15050565b6000604051905090565b600080fd5b600080fd5b600080fd5b600080fd5b6000601f19601f8301169050919050565b7f4e487b7100000000000000000000000000000000000000000000000000000000600052604160045260246000fd5b6105dd82610594565b810181811067ffffffffffffffff821117156105fc576105fb6105a5565b5b80604052505050565b600061060f610576565b905061061b82826105d4565b919050565b600067ffffffffffffffff82111561063b5761063a6105a5565b5b61064482610594565b9050602081019050919050565b82818337600083830152505050565b600061067361066e84610620565b610605565b90508281526020810184848401111561068f5761068e61058f565b5b61069a848285610651565b509392505050565b600082601f8301126106b7576106b661058a565b5b81356106c7848260208601610660565b91505092915050565b600080604083850312156106e7576106e6610580565b5b600083013567ffffffffffffffff81111561070557610704610585565b5b610711858286016106a2565b925050602083013567ffffffffffffffff81111561073257610731610585565b5b61073e858286016106a2565b9150509250929050565b6000819050919050565b61075b81610748565b82525050565b60006020820190506107766000830184610752565b92915050565b61078581610748565b811461079057600080fd5b50565b6000813590506107a28161077c565b92915050565b6000602082840312156107be576107bd610580565b5b60006107cc84828501610793565b91505092915050565b600081519050919050565b600082825260208201905092915050565b60005b8381101561080f5780820151818401526020810190506107f4565b8381111561081e576000848401525b50505050565b600061082f826107d5565b61083981856107e0565b93506108498185602086016107f1565b61085281610594565b840191505092915050565b60008115159050919050565b6108728161085d565b82525050565b600060a08201905061088d6000830188610752565b818103602083015261089f8187610824565b905081810360408301526108b38186610824565b90506108c26060830185610869565b6108cf6080830184610752565b9695505050505050565b7f4e487b7100000000000000000000000000000000000000000000000000000000600052602260045260246000fd5b6000600282049050600182168061092057607f821691505b602082108103610933576109326108d9565b5b50919050565b60008190508160005260206000209050919050565b60006020601f8301049050919050565b600082821b905092915050565b60006008830261099b7fffffffffffffffffffffffffffffffffffffffffffffffffffffffffffffffff8261095e565b6109a5868361095e565b95508019841693508086168417925050509392505050565b6000819050919050565b60006109e26109dd6109d884610748565b6109bd565b610748565b9050919050565b6000819050919050565b6109fc836109c7565b610a10610a08826109e9565b84845461096b565b825550505050565b600090565b610a25610a18565b610a308184846109f3565b505050565b5b81811015610a5457610a49600082610a1d565b600181019050610a36565b5050565b601f821115610a9957610a6a81610939565b610a738461094e565b81016020851015610a82578190505b610a96610a8e8561094e565b830182610a35565b50505b505050565b600082821c905092915050565b6000610abc60001984600802610a9e565b1980831691505092915050565b6000610ad58383610aab565b9150826002028217905092915050565b610aee826107d5565b67ffffffffffffffff811115610b0757610b066105a5565b5b610b118254610908565b610b1c828285610a58565b600060209050601f831160018114610b4f5760008415610b3d578287015190505b610b478582610ac9565b865550610baf565b601f198416610b5d86610939565b60005b82811015610b8557848901518255600182019150602085019450602081019050610b60565b86831015610ba25784890151610b9e601f891682610aab565b8355505b6001600288020188555050505b505050505050565b7f4e487b7100000000000000000000000000000000000000000000000000000000600052601160045260246000fd5b6000610bf182610748565b91507fffffffffffffffffffffffffffffffffffffffffffffffffffffffffffffffff8203610c2357610c22610bb7565b5b600182019050919050565b6000604082019050610c436000830185610752565b610c506020830184610869565b939250505056fea264697066735822122096c009ac3a361440fb234c234e49eb753986cb4c862f9fc6336dcbf756e55de964736f6c634300080f0033",
  "immutableReferences": {},
  "source": "// SPDX-License-Identifier: MIT\npragma solidity ^0.8.15;\n\ncontract TasksContract {\n\n    constructor(){\n        createTask(\"My first task\", \"I have to do something today...\");\n    }\n\n    event TaskCreated(\n        uint256 id,\n        string title,\n        string description,\n        bool done,\n        uint256 createdAt\n    );\n\n    event TaskToggleDone( \n        uint256 id, \n        bool done \n    );\n\n    uint public taskCounter = 0;\n\n    struct Task {\n        uint256 id;\n        string title;\n        string description;\n        bool done;\n        uint256 createdAt;\n    }\n\n    mapping( uint => Task ) public tasks;\n\n    function createTask(  string memory _title, string memory _description ) public {\n        tasks[ taskCounter ] = Task( taskCounter, _title, _description, false, block.timestamp );\n        taskCounter++;\n        emit TaskCreated( taskCounter, _title, _description, false, block.timestamp );\n    }\n\n    function toggleDone( uint _id ) public {\n        Task memory _task = tasks[ _id ];\n        _task.done = !_task.done;\n        tasks[ _id ] = _task;\n        emit TaskToggleDone( _id, _task.done );\n    }\n\n}",
  "sourcePath": "/Users/kiwi/Development/blockchain/taskscontract/contracts/TasksContract.sol",
  "compiler": {
    "name": "solc",
    "version": "0.8.15+commit.e14f2714.Emscripten.clang"
  },
  "schemaVersion": "3.4.16",
  "updatedAt": "2023-12-10T10:24:55.307Z",
  "networkType": "ethereum",
  "devdoc": {
    "kind": "dev",
    "methods": {},
    "version": 1
  },
  "userdoc": {
    "kind": "user",
    "methods": {},
    "version": 1
  }
}